:10000000FE2B00308A000408840A82070034013481
:1000100000340A34003464340034E83403341034D7
:10002000273431342E3420343D34203425346434A4
:10003000003432342E3420343D34203425346434BA
:0E004000003420343A34203425346434003443
:100340000030A4210130A42983128F0006100F0869
:10035000CB21861406308E0030308D008D0BAE29F7
:100360008E0BAE29000083128610080094009201C3
:1003700093011208140791008400831300080319E5
:100380000800120814079100840000081822920A3D
:100390000319930AB92983128C000C1CD129061663
:1003A000D22906128C1CD6298616D72986120C1D36
:1003B000DB290617DC2906138C1DE02986170800A7
:1003C00086130800900191010C1CEC290E0890077F
:1003D0000318910A0F08910703108E0D8F0D03105B
:1003E0008D0C8C0C0C080D04031DE42911088D00E4
:1003F00010088C0008009100110B042A10087F3EA1
:100400000E22A4211308A42902301106031D08009E
:100410001008BF3E0E22A4211308A4299400140E34
:100420000F399200140893000F309305120808004A
:1004300090008E000F308E0510088F00F0308F0571
:1004400006140F0E0F39CB2186140D308D008D0B45
:10045000272A831286100E08CB2186140D308D00BA
:100460008D0B302A83128610080013081404031918
:10047000542A9701970A941B412A0310930D940D57
:100480003A2A14081602031D472A13081502031CF2
:10049000502A130895021408031C960396020310B1
:1004A000940C930C970B412A16089400150893009E
:1004B0000800900191010C080D0403197E2A920195
:1004C000920A8D1B672A03108C0D8D0D602A031074
:1004D000900D910D0D080F02031D702A0C080E02DD
:1004E000031C7A2A0C088E020D08031C8F038F024E
:1004F000101403108D0C8C0C920B672A11088D00C0
:1005000010088C0008000030CB211A309100F83020
:100510009000900B892A910B892A00000330A421B6
:10052000073091007D309000900B942A910B942A13
:100530000330A4210F30910047309000900B9E2A89
:10054000910B9E2AA32A0330A4210230A421023059
:10055000A4210830A4210030A4210C30A4210030B3
:10056000A4210630A429A20019309D001808980A79
:1005700084000120A30023080319272B253023061C
:100580000319C42A2C23B62A9E011808980A84004D
:100590000120A300003A0319272B643A0319D42A37
:1005A0000D3A0319D42AB62A1D08840083130008C3
:1005B000A000840A0008A1009D0A9D0AA11FE72A45
:1005C00003309E04A009A109A00A0319A10AA301EE
:1005D000A30A0310230D013E840001209B0001208B
:1005E0009C002102031DF62A1B082002031CFD2A81
:1005F0000530A30A2306031DE92A1E08033903193F
:10060000072B220884002D3083138000A20A2308C0
:100610009F00232B0A309300940103101F0D013E0D
:10062000840001208C0001208D0021088F0020080B
:100630008E0059220D0896000C08950035221308EB
:10064000303EA3002C239F031F0F0A2BB62A22083B
:100650008400831380010800220884002308831388
:100660008000A20A0800831686010615FF30850067
:100670008322A021061D3A2BB023C2003708C300F5
:100680000B30980043089A00420899003830B32292
:1006900001309001900AFB213830B6210930A600C4
:1006A0001E30A500E430A400A40B542BA50B542B42
:1006B000A60B542B00008312061D5B2BB023C40035
:1006C0003708C5001330980045089A00440899007F
:1006D0003830B322083090000130FB213830B62189
:1006E00002309001900AFB211E3098004408420716
:1006F000990045080318450A43079A003830B32289
:100700003830B6211B309800440842029900450851
:10071000031C450A43029A003830B3223830B62110
:100720001B30980043088D0042088C0045088F005C
:1007300044088E00E2210D089A000C089900383018
:10074000B3223830B6212E30A600A930A5002F30B4
:10075000A400A40BA92BA50BA92BA60BA92B392B05
:1007600005080139A400A501050C0139A600A7015F
:100770000310A60DA70D050CA800280C0139A9002F
:10078000AA010310A90DAA0D0310A90DAA0D050CAD
:10079000AB00AB0C2B0C0139AC00AD010310AC0D60
:1007A000AD0D0310AC0DAD0D0310AC0DAD0D050E70
:1007B0000139AE00F030AF01AE0EAF0EAF052E081E
:1007C0000F39AF04F030AE052C082E04B0002D0810
:1007D0002F04B10029083004B2002A083104B30004
:1007E00026083204B40027083304B5002408340472
:1007F000B60025083504B700360808008301332BFE
:02400E00F9FFB8
:00000001FF
